{
  "_format": "hh-sol-artifact-1",
  "contractName": "ERC20Faucet",
  "sourceName": "contracts/faucet/ERC20Faucet.sol",
  "abi": [
    {
      "inputs": [
        {
          "internalType": "address",
          "name": "token_",
          "type": "address"
        },
        {
          "internalType": "uint256",
          "name": "drip_",
          "type": "uint256"
        }
      ],
      "stateMutability": "nonpayable",
      "type": "constructor"
    },
    {
      "inputs": [],
      "name": "drip",
      "outputs": [
        {
          "internalType": "uint256",
          "name": "",
          "type": "uint256"
        }
      ],
      "stateMutability": "view",
      "type": "function"
    },
    {
      "inputs": [],
      "name": "request",
      "outputs": [
        {
          "internalType": "bool",
          "name": "",
          "type": "bool"
        }
      ],
      "stateMutability": "nonpayable",
      "type": "function"
    },
    {
      "inputs": [],
      "name": "token",
      "outputs": [
        {
          "internalType": "address",
          "name": "",
          "type": "address"
        }
      ],
      "stateMutability": "view",
      "type": "function"
    },
    {
      "inputs": [],
      "name": "waitTime",
      "outputs": [
        {
          "internalType": "uint256",
          "name": "",
          "type": "uint256"
        }
      ],
      "stateMutability": "view",
      "type": "function"
    }
  ],
  "bytecode": "0x6080604052603c60045534801561001557600080fd5b506040516108cb3803806108cb833981810160405281019061003791906101a3565b600073ffffffffffffffffffffffffffffffffffffffff168273ffffffffffffffffffffffffffffffffffffffff1614156100a7576040517f08c379a000000000000000000000000000000000000000000000000000000000815260040161009e90610245565b60405180910390fd5b600081116100ea576040517f08c379a00000000000000000000000000000000000000000000000000000000081526004016100e190610225565b60405180910390fd5b336000806101000a81548173ffffffffffffffffffffffffffffffffffffffff021916908373ffffffffffffffffffffffffffffffffffffffff16021790555081600260006101000a81548173ffffffffffffffffffffffffffffffffffffffff021916908373ffffffffffffffffffffffffffffffffffffffff16021790555080600381905550505061037e565b60008151905061018881610350565b92915050565b60008151905061019d81610367565b92915050565b600080604083850312156101b657600080fd5b60006101c485828601610179565b92505060206101d58582860161018e565b9150509250929050565b60006101ec602283610265565b91506101f7826102b2565b604082019050919050565b600061020f603683610265565b915061021a82610301565b604082019050919050565b6000602082019050818103600083015261023e816101df565b9050919050565b6000602082019050818103600083015261025e81610202565b9050919050565b600082825260208201905092915050565b600061028182610288565b9050919050565b600073ffffffffffffffffffffffffffffffffffffffff82169050919050565b6000819050919050565b7f45524332304661756365743a2044726970206d75737420626520706f7369746960008201527f7665000000000000000000000000000000000000000000000000000000000000602082015250565b7f45524332304661756365743a20546f6b656e20616464726573732063616e206e60008201527f6f7420626520746865207a65726f206164647265737300000000000000000000602082015250565b61035981610276565b811461036457600080fd5b50565b610370816102a8565b811461037b57600080fd5b50565b61053e8061038d6000396000f3fe608060405234801561001057600080fd5b506004361061004c5760003560e01c8063338cdca1146100515780639f678cca1461006f578063ccca123b1461008d578063fc0c546a146100ab575b600080fd5b6100596100c9565b6040516100669190610394565b60405180910390f35b610077610212565b60405161008491906103cf565b60405180910390f35b61009561021c565b6040516100a291906103cf565b60405180910390f35b6100b3610226565b6040516100c09190610350565b60405180910390f35b6000803390506100d881610250565b610117576040517f08c379a000000000000000000000000000000000000000000000000000000000815260040161010e906103af565b60405180910390fd5b42600160008373ffffffffffffffffffffffffffffffffffffffff1673ffffffffffffffffffffffffffffffffffffffff16815260200190815260200160002081905550600260009054906101000a900473ffffffffffffffffffffffffffffffffffffffff1673ffffffffffffffffffffffffffffffffffffffff1663a9059cbb826003546040518363ffffffff1660e01b81526004016101ba92919061036b565b602060405180830381600087803b1580156101d457600080fd5b505af11580156101e8573d6000803e3d6000fd5b505050506040513d601f19601f8201168201806040525081019061020c91906102d7565b91505090565b6000600354905090565b6000600454905090565b6000600260009054906101000a900473ffffffffffffffffffffffffffffffffffffffff16905090565b600080600160008473ffffffffffffffffffffffffffffffffffffffff1673ffffffffffffffffffffffffffffffffffffffff16815260200190815260200160002054905060008114156102a85760019150506102bd565b600454816102b691906103fb565b4210159150505b919050565b6000815190506102d1816104f1565b92915050565b6000602082840312156102e957600080fd5b60006102f7848285016102c2565b91505092915050565b61030981610451565b82525050565b61031881610463565b82525050565b600061032b601a836103ea565b9150610336826104c8565b602082019050919050565b61034a8161048f565b82525050565b60006020820190506103656000830184610300565b92915050565b60006040820190506103806000830185610300565b61038d6020830184610341565b9392505050565b60006020820190506103a9600083018461030f565b92915050565b600060208201905081810360008301526103c88161031e565b9050919050565b60006020820190506103e46000830184610341565b92915050565b600082825260208201905092915050565b60006104068261048f565b91506104118361048f565b9250827fffffffffffffffffffffffffffffffffffffffffffffffffffffffffffffffff0382111561044657610445610499565b5b828201905092915050565b600061045c8261046f565b9050919050565b60008115159050919050565b600073ffffffffffffffffffffffffffffffffffffffff82169050919050565b6000819050919050565b7f4e487b7100000000000000000000000000000000000000000000000000000000600052601160045260246000fd5b7f45524332304661756365743a20576169742031206d696e757465000000000000600082015250565b6104fa81610463565b811461050557600080fd5b5056fea2646970667358221220ff0590447e40d36cc03428af252f5a01433ff7c038180492542f8bedcbd50ed164736f6c63430008040033",
  "linkReferences": {},
  "deployedLinkReferences": {}
}